:020000040800F2
:100000008815002009020008657400081D5C0008BE
:10001000617400082D090008099F00081B020008F0
:10002000000000000000000000000000F57E000855
:100030003109000800000000F1740008A9800008E0
:1000400025020008250200082502000825020008F4
:1000500025020008250200082502000825020008E4
:1000600025020008250200082502000825020008D4
:1000700025020008350900082502000825020008AD
:100080004109000825020008250200084D09000862
:1000900025020008250200082502000825020008A4
:1000A0002502000825020008250200082502000894
:1000B0002502000825020008250200082502000884
:1000C0002502000825020008250200082502000874
:1000D0002502000825020008250200082502000864
:1000E0002502000825020008250200082502000854
:1000F0002502000825020008250200082502000844
:1001000025020008D98200082502000825020008FF
:100110002502000825020008250200082502000823
:100120002502000825020008250200082502000813
:100130002502000825020008E99E0008F99E000833
:100140001D8D000825020008250200082502000870
:1001500025020008250200082502000825020008E3
:1001600025020008250200082502000825020008D3
:100170002502000800000000250200080000000021
:1001800025020008250200082502000825020008B3
:1001900025020008250200082502000825020008A3
:1001A0002502000825020008250200082502000893
:1001B00025020008000000002502000825020008B2
:1001C00025020008000000002502000825020008A2
:1001D0002502000825020008250200082502000863
:1001E0002502000825020008250200082502000853
:1001F00000000000DFF80CD000F01EF900480047B6
:1002000031A30008881500200748804707480047A9
:10021000FEE7FEE7FEE7FEE7FEE7FEE7FEE7FEE7B6
:10022000FEE7FEE7FEE70000C5820008F5010008D2
:100230002DE9F05F0546002092469B46884606461B
:10024000814640241BE0284641464746224600F0AE
:10025000AAF853465A46C01A914110D3114618467F
:10026000224600F091F82D1A67EB01084F4622460E
:100270000120002100F088F817EB00094E41201EF4
:10028000A4F10104DFDC484631462A464346BDE876
:10029000F09F2DE9F0410024061B254671F1000670
:1002A00005DA01240027D0EB070067EB0101161ED9
:1002B00073F1000605DA0027D2EB0702012567EB90
:1002C0000303FFF7B5FF86460E4617469C46AC4231
:1002D00004D00025D0EB050E65EB010624B100200B
:1002E000D2EB000760EB030C704631463A4663469A
:1002F000BDE8F08140EA01039B0703D009E008C98B
:10030000121F08C0042AFAD203E011F8013B00F8DA
:10031000013B521EF9D27047D2B201E000F8012B26
:10032000491EFBD270470022F6E710B513460A4675
:1003300004461946FFF7F0FF204610BD30B50546CC
:100340002A460B4612F8010B13F8014B08B1A042E4
:10035000F8D01CB1002802D06D1CF1E7284630BD52
:10036000421C10F8011B0029FBD1801A704770B5A0
:1003700006460BF063F8046805460A220021304661
:1003800000F021F82C6070BD202A04DB203A00FA2E
:1003900002F1002070479140C2F1200320FA03F3DC
:1003A000194390407047202A04DB203A21FA02F0DA
:1003B0000021704721FA02F3D040C2F1200291409F
:1003C0000843194670472DE9F04791460F4680468D
:1003D0000446002614F8015B2DB100F03FF80068D8
:1003E000405DC007F6D12B2D02D02D2D18D0641EF4
:1003F0004A463946204600F035F827B13968A1420F
:1004000001D1C7F8008071054FF002040BD54042BE
:10041000002803DD0BF012F80460A007BDE8F087A8
:1004200046F48066E4E70028F8DA0BF007F8046089
:100430006FF00040F2E70000064C074D06E0E06870
:1004400040F0010394E8070098471034AC42F6D31B
:10045000FFF7D4FE08B6000828B600080048704729
:10046000E4B400082DE9F05F8246007800271546C5
:100470008B460AF10104B946302801D09DB113E042
:1004800014F8010B0127782803D0582801D045B172
:100490000AE00DB1102D07D10027102514F8010B2B
:1004A00002E0082500E00A250026B0460EE005FB24
:1004B000080005FB06F1012701EB10461FFA80F842
:1004C000B6F5803F00D3B94614F8010B294600F079
:1004D00018F80028EBDABBF1000F05D00FB1641E4D
:1004E00000E05446CBF80040B9F1000F06D00AF006
:1004F000A5FF02210160C81EBDE8F09F48EA064042
:10050000FAE73A2800D2303820F02002412A01D3FD
:10051000A2F13700884201D34FF0FF30704770B529
:100520008C1810F8015B15F0070301D110F8013B9E
:100530002A1106D110F8012B03E010F8016B01F825
:10054000016B5B1EF9D12B0705D40023521E0DD47D
:1005500001F8013BFAE710F8013BCB1A921C03E0CB
:1005600013F8015B01F8015B521EF9D5A142D8D303
:10057000002070BD80B588B005208DF81E000020D9
:10058000C4F20220102100220690059100F072FDB5
:1005900040F63820C2F200000DF11E0101224FF496
:1005A0007A7E049003927346CDF808E003F00AFACD
:1005B0000DF11D01049A01901046039A029B03F06D
:1005C000BFF80699009008460599039A00F052FD7D
:1005D0009DF81D00C007002804D0FFE702208DF819
:1005E0001F0003E000208DF81F00FFE79DF81F00AB
:1005F00008B080BD80B500F081F8FFF7BBFF80BD7B
:1006000080B58CB013468C4686460A9009910892B4
:1006100003208DF81C00BDF826008DF81D000998F8
:10062000000A8DF81E0009988DF81F000020C4F202
:100630000220102100220693CDF814C0CDF810E05E
:1006400000F018FD40F63820C2F2000007A904228D
:100650004FF47A730390029303F0B4F90A99BDF84A
:100660002020039B01901846029B03F069F80028A4
:1006700004D0FFE701208DF82F000AE00020C4F22B
:1006800002201021012200F0F5FC00208DF82F003F
:10069000FFE79DF82F000CB080BD000080B58AB048
:1006A00001460990902008900020C4F202201022F8
:1006B000002307900691114605921A4600F0DAFCD5
:1006C00040F63820C2F2000008A904224FF47A73E1
:1006D0000490039303F076F909990222049B029097
:1006E0001846039B03F02CF8012207990190084655
:1006F000059900F0BFFC0AB080BD000080B584B051
:1007000049F66610ADF80E000020C4F20220102158
:1007100000220290019100F0ADFC40F63820C2F2B8
:1007200000000DF10E0102224FF47A7303F04AF932
:100730000122029900900846019900F09BFC04B048
:1007400080BD000080B58EB013468C4686460C9066
:100750000B910A920493CDF80CC0CDF808E000F09C
:10076000A7FC059000200690FFE706980B998842A9
:1007700004D8FFE7069880300690F6E706980B99B4
:10078000401A079007980A99884203D9FFE70A9808
:100790000790FFE70B9806900B980A990844089079
:1007A000FFE702208DF82400BDF81A008DF825001F
:1007B0000698000A8DF8260006988DF8270000F0AC
:1007C00071F840F2000EC4F2022E102100220190B6
:1007D000704600F04FFC40F63820C2F2000009A934
:1007E00004224FF47A7303F0EDF8002804D0FFE7F9
:1007F00001208DF8370050E00C99BDF81C2040F620
:100800003820C2F200004FF47A7303F0DBF80028BE
:1008100004D0FFE701208DF837003EE00020C4F24D
:1008200002201021012200F025FCFFE7FFF7A2FEC5
:1008300002280FD1FFE700F03BFCDDF814E0A0EB4D
:100840000E00B0F57A7F04D9FFE703208DF837005A
:1008500023E0EBE7079806990844069007980C995F
:1008600008440C90069880300899884205D9FFE723
:1008700008980699401A009002E080200090FFE757
:1008800000980790FFE7069808998842FFF489AF1F
:10089000FFE700208DF83700FFE79DF837000EB026
:1008A00080BD000080B586B006208DF8160000F0EF
:1008B000FFFB04900020C4F202204FF0100E002233
:1008C00003907146CDF808E000F0D4FB40F63820E4
:1008D000C2F200000DF1160101224FF47A73019269
:1008E00003F070F80399009008460299019A00F00D
:1008F000C1FBFFE7FFF73EFE02280FD1FFE700F044
:10090000D7FBDDF810E0A0EB0E00B0F57A7F04D93C
:10091000FFE703208DF8170004E0EBE700208DF8D7
:100920001700FFE79DF8170006B080BDFFE7FEE760
:100930007047000080B5042000F09EF980BD0000E3
:1009400080B5202000F098F980BD000080B54FF4FC
:10095000807000F091F980BD80B584B00A460346EE
:100960000390029103980192009305F0FFFB002889
:1009700001D0FFE716E0029803994A6D41F8220082
:100980000398416D013146F26762C6F2666251FB1F
:1009900002F2D31003EBD27202EB8202A1EB8201CE
:1009A0004165FFE704B080BD81B0EFF3108072B6FF
:1009B0000090FFE7FEE7000083B0014602900020B0
:1009C0008DF807000091FFE702989DF9071001EBF1
:1009D0008101490140F20802C2F2000251588842E6
:1009E00017D0FFE79DF9070000EB8000400140F2BF
:1009F0000801C2F200010858092804D1FFE7FF20CE
:100A00008DF8070005E09DF8070001308DF807001C
:100A1000DAE79DF9070003B07047000080B58AB09F
:100A20000A46034608900791002005900799039015
:100A3000084602920193FFF793FC049003980690F6
:100A4000FFE706980499884218DAFFE707980699A5
:100A5000405C2C2804D1FFE7059801300590FFE7A2
:100A600005980899884204D1FFE70698013009905B
:100A700007E0FFE7069801300690E2E700200990C2
:100A8000FFE709980AB080BD80B586B00A460346E4
:100A90000590ADF812100599BDF8120040F6105CF3
:100AA000C2F2000C4FF00A0E03906046DDF80CC055
:100AB000029262460193734604F0F4FF009006B080
:100AC00080BD000084B00146029000200190029891
:100AD000806A022800910BD0FFE70298042181640C
:100AE000FFE7029800214162FFE70120039039E00F
:100AF00002980068016821F00E0101600298406DC3
:100B0000016821F48071016002980068016821F099
:100B1000010101600298C16C006D00F01C0001220F
:100B200002FA00F048600298816DC06D486002983A
:100B3000006E00280BD0FFE70298006E016821F4D8
:100B4000807101600298416E806E4860FFE70298F4
:100B500001218162FFE7029800214162FFE70198CD
:100B60000390FFE7039804B07047000080B584B09D
:100B700001460390002002900398806A02280191A8
:100B800006D0FFE70398042181640120029040E031
:100B900003980068016821F00E0101600398006865
:100BA000016821F0010101600398406D016821F4A2
:100BB000807101600398C16C006D00F01C0001227F
:100BC00002FA00F048600398816DC06D4860039898
:100BD000006E00280BD0FFE70398006E016821F437
:100BE000807101600398416E806E4860FFE7039852
:100BF00001218162FFE7039800214162FFE703982A
:100C0000406C002804D0FFE70398416C8847FFE759
:100C1000FFE7029804B080BD80B584B00146039020
:100C2000009100F045FA029003980190019801307C
:100C3000002809D0FFE740F27060C2F200000068AF
:100C4000019908440190FFE7FFE700F031FADDF871
:100C500008E0A0EB0E00DDF804E0704501D2FFE7EC
:100C6000F3E704B080BD000082B00146ADF8060095
:100C7000009102B07047000080B582B00146ADF827
:100C800006004FF20C40C4F202000068BDF80620D6
:100C9000104200910CD0FFE7BDF806004FF20C4166
:100CA000C4F202010860BDF8060000F019F8FFE781
:100CB0004FF21040C4F202000068BDF8061008426E
:100CC0000CD0FFE7BDF806004FF21041C4F202015C
:100CD0000860BDF80600FFF7C7FFFFE702B080BD60
:100CE00082B00146ADF80600009102B070470000E6
:100CF0008DB00A4603460C900B9100200A90079293
:100D00000693FFE70B9800680A99C840002800F096
:100D1000AF81FFE70B9800680A99012202FA01F1FE
:100D2000084009900998002800F09E81FFE70B9881
:100D3000406801280FD0FFE70B98406802280AD0CE
:100D4000FFE70B984068112805D0FFE70B98406833
:100D500012282FD1FFE70C98806808900A9840006D
:100D6000032101FA00F0089921EA000008900B988D
:100D7000C0680A9949008840089908430890089873
:100D80000C9988600C98406808900A98012101FA33
:100D900000F0089921EA000008900B984068C0F321
:100DA00000100A99884008990843089008980C99FF
:100DB0004860FFE70C98C06808900A98400003213B
:100DC00001FA00F0089921EA000008900B98806869
:100DD0000A994900884008990843089008980C9996
:100DE000C8600B984068022805D0FFE70B98406860
:100DF000122826D1FFE70C980A996FF0030202EA45
:100E000051010844006A08900A9800F00700800029
:100E10000F2101FA00F0089921EA000008900B98D0
:100E200000690A9901F00701890088400899084380
:100E3000089008980C990A9B02EA53021144086230
:100E4000FFE70C98006808900A984000032101FA17
:100E500000F0089921EA000008900B98406800F023
:100E600003000A99490088400899084308900898A7
:100E70000C9908600B984068C000002840F1F3808E
:100E8000FFE70A9820F003004FF26041C4F202012C
:100E9000405808900A9800F00300C0000F2101FAA2
:100EA00000F0089921EA000008900C980021C4F293
:100EB0000221884203D1FFE70020059050E00C9802
:100EC00040F20041C4F20221884203D1FFE7012031
:100ED000049042E00C9840F60001C4F202218842DE
:100EE00003D1FFE70220039034E00C9840F6004164
:100EF000C4F20221884203D1FFE70320029026E0DA
:100F00000C9841F20001C4F20221884203D1FFE7AC
:100F10000420019018E00C9841F20041C4F2022133
:100F2000884203D1FFE7052000900AE00C9841F6C3
:100F30000001C4F202210722884208BF0622009263
:100F4000FFE700980190FFE701980290FFE7029801
:100F50000390FFE703980490FFE704980590FFE7EC
:100F600005980A9901F00301C900884008990843CF
:100F7000089008980A9921F003014FF26042C4F2E8
:100F8000020288504FF28040C4F2020000680890CC
:100F90000998089921EA000008900B984068C0035E
:100FA000002805D5FFE70998089908430890FFE74E
:100FB00008984FF28041C4F2020108604FF2844069
:100FC000C4F20200006808900998089921EA00001C
:100FD00008900B9840688003002805D5FFE7099822
:100FE000089908430890FFE708984FF28441C4F23B
:100FF000020108604FF20040C4F20200006808904D
:101000000998089921EA000008900B984068C002EE
:10101000002805D5FFE70998089908430890FFE7DD
:1010200008984FF20041C4F2020108604FF20440F8
:10103000C4F20200006808900998089921EA0000AB
:1010400008900B9840688002002805D5FFE70998B2
:10105000089908430890FFE708984FF20441C4F24A
:1010600002010860FFE7FFE70A9801300A9049E6AD
:101070000DB0704780B586B013468C468646059005
:10108000ADF812100392039800280293CDF804C023
:10109000CDF800E005D0FFE7BDF8120005998861A2
:1010A00004E0BDF8120005998862FFE706B080BD34
:1010B00041F27800C2F200000068704785B00A462D
:1010C0000346039002910398406C202801920093FC
:1010D00034D1FFE7FFE70398006C012803D1FFE755
:1010E000022004902DE0039801210164FFE7FFE74F
:1010F00003982421416403980068016821F00101EC
:10110000016003980068016821F480510160029831
:10111000039909680A681043086003980068016829
:1011200041F001010160039820214164FFE7039829
:1011300000210164FFE70020049002E002200490F7
:10114000FFE7049805B0704786B00A46034604904E
:1011500003910498406C20280192009339D1FFE755
:10116000FFE70498006C012803D1FFE702200590F7
:1011700032E0049801210164FFE7FFE7049824218D
:10118000416404980068016821F00101016004983D
:10119000006800680290029820F470600290039842
:1011A000029941EA002002900298049909680860B7
:1011B00004980068016841F0010101600498202151
:1011C0004164FFE7049800210164FFE700200590D7
:1011D00002E002200590FFE7059806B07047000086
:1011E00080B584B00146029002980028019103D195
:1011F000FFE7012003906EE00298406C002807D1C1
:10120000FFE7029800210164029800F0F9FAFFE775
:1012100002982421416402980068016821F00101CC
:10122000016002980168406820F0706008610298CF
:101230000068816821F4004181600298C06801283B
:1012400007D1FFE702980168806840F40040886099
:1012500006E002980168806840F404408860FFE777
:101260000298C068022806D1FFE7029800684FF490
:1012700000614160FFE702980068416848F200029F
:10128000C0F200221143416002980068C16821F455
:101290000041C160029801680269436980691A438C
:1012A00042EA0020C86002980168C269006A1043DF
:1012B000086002980068016841F00101016002982D
:1012C0000021C164029820224264029801630298BE
:1012D00081640391FFE7039804B080BD2DE9F041DC
:1012E0008EB0DDF858C0DDF854E0149C1D4616465B
:1012F0000F4680460C90ADF82E10ADF82C20ADF8BE
:101300002A30ADF828E00C98406C2028CDF820C099
:101310000794069505960497CDF80C8040F024813B
:10132000FFE71498002805D0FFE7BDF82800002843
:1013300007D1FFE70C984FF40071C16401200D90B4
:1013400015E1FFE70C98006C012803D1FFE70220AC
:101350000D900CE10C9801210164FFE7FFE7FFF716
:10136000A7FE09900C98DDF824E06946C1F800E07A
:101370004FF400410122192304F0FCFD002803D0A2
:10138000FFE701200D90F2E00C98222141640C98B7
:10139000402181640C980021C16414980C9A506219
:1013A000BDF828000C9A50850C9841630C98BDF844
:1013B0002E10BDF82C20BDF82A30DDF858C0DDF81D
:1013C00024E06C46C4F804E0C4F800C004F0C8FC93
:1013D000002808D0FFE7FFE70C9800210164FFE731
:1013E00001200D90C3E00C98408DB0F5807F14D3A0
:1013F000FFE70C98FF2101850C98BDF82E1090F89E
:1014000028206B4642F2004CC8F2000CC3F800C022
:101410004FF0807304F07CFD14E00C98408D0C9923
:1014200008850C98BDF82E1090F828206B4642F2E3
:10143000004CC8F2000CC3F800C04FF0007304F079
:1014400067FDFFE7FFE70C98169B09996A46116054
:101450000421002204F08EFD002803D0FFE70120C4
:101460000D9084E00C980068406A0C99496A0870F5
:101470000C98416A013141620C98018D0139018556
:101480000C98418D013941850C98408D002840D041
:10149000FFE70C98008D00283BD1FFE70C98169BC6
:1014A00009996A4611608021002204F063FD00283A
:1014B00003D0FFE701200D9059E00C98408DB0F566
:1014C000807F12D3FFE70C98FF2101850C98BDF8AF
:1014D0002E1090F828206B464FF0000CC3F800C087
:1014E0004FF0807304F014FD12E00C98408D0C99BD
:1014F00008850C98BDF82E1090F828206B464FF008
:10150000000CC3F800C04FF0007304F001FDFFE7CA
:10151000FFE7FFE70C98408D002894D1FFE70C9877
:101520001699099A04F076FD002803D0FFE7012000
:101530000D901CE00C9800682021C1610C98006897
:1015400042684EF60003CFF600631A4042600C98E2
:1015500041640C9800218164FFE70C98002101642C
:10156000FFE700200D9002E002200D90FFE70D98AC
:101570000EB0BDE8F08100002DE9F0418EB0DDF83D
:1015800058C0DDF854E0149C1D4616460F468046B0
:101590000C90ADF82E10ADF82C20ADF82A30ADF837
:1015A00028E00C98406C2028CDF820C007940695C0
:1015B00005960497CDF80C8040F01B81FFE7149846
:1015C000002805D0FFE7BDF82800002807D1FFE775
:1015D0000C984FF40071C16401200D900CE1FFE7FD
:1015E0000C98006C012803D1FFE702200D9003E165
:1015F0000C9801210164FFE7FFE7FFF759FD09900F
:101600000C98DDF824E06946C1F800E04FF4004191
:101610000122192304F0AEFC002803D0FFE70120CB
:101620000D90E9E00C98212141640C9840218164DF
:101630000C980021C16414980C9A5062BDF82800DF
:101640000C9A50850C9841630C98BDF82E10BDF88B
:101650002C20BDF82A30DDF858C0DDF824E06C46B7
:10166000C4F804E0C4F800C004F0E6FB002808D089
:10167000FFE7FFE70C9800210164FFE701200D90D0
:10168000BAE00C98408DB0F5807F12D3FFE70C983C
:10169000FF2101850C98BDF82E1090F828206B468C
:1016A0004FF0000CC3F800C04FF0807304F030FC22
:1016B00012E00C98408D0C9908850C98BDF82E10FE
:1016C00090F828206B464FF0000CC3F800C04FF094
:1016D000007304F01DFCFFE7FFE70C981699099AC8
:1016E00004F0E4FC002803D0FFE701200D9083E024
:1016F0000C980168406A007888620C98416A013150
:1017000041620C98418D013941850C98018D013958
:1017100001850C98408D002840D0FFE70C98008D83
:1017200000283BD1FFE70C98169B09996A46116087
:101730008021002204F01EFC002803D0FFE70120D6
:101740000D9059E00C98408DB0F5807F12D3FFE7E3
:101750000C98FF2101850C98BDF82E1090F82820D8
:101760006B464FF0000CC3F800C04FF0807304F0DC
:10177000CFFB12E00C98408D0C9908850C98BDF8B1
:101780002E1090F828206B464FF0000CC3F800C0D4
:101790004FF0007304F0BCFBFFE7FFE7FFE70C9896
:1017A000408D002899D1FFE70C981699099A04F00A
:1017B00031FC002803D0FFE701200D901CE00C98BD
:1017C00000682021C1610C98006842684EF6000351
:1017D000CFF600631A4042600C9841640C980021D7
:1017E0008164FFE70C9800210164FFE700200D9061
:1017F00002E002200D90FFE70D980EB0BDE8F081E9
:1018000080B5C0B001463F9000203E903D903C9096
:101810003B903A9015A894220D911146FEF783FD56
:101820003F98006845F20041C4F20001884240D16F
:10183000FFE7402015900020289015A800F080FABE
:10184000002803D0FFE7FFF7AFF8FFE7FFE741F21B
:101850004C00C4F20200016841F00201016000681E
:1018600000F00200149014980C90FFE74FF44070C1
:101870003A9012203B9001203C9000203D900420A3
:101880003E9040F20040C4F202203AA9FFF730FA3D
:10189000FFE741F25800C4F20200016841F4001170
:1018A0000160006800F40010139013980B90FFE79C
:1018B000C6E03F98006845F60041C4F20001884246
:1018C00069D1FFE74FF48070159000202A9015A889
:1018D00000F036FA002803D0FFE7FFF765F8FFE7CE
:1018E000FFE741F24C00C4F20200016841F004013C
:1018F0000160006800F00400129012980A90FFE75F
:10190000FFE741F24C00C4F20200016841F002011D
:101910000160006800F00200119011980990FFE743
:1019200001203A9012213B913C9000223D920423E9
:101930003E9340F6000CC4F2022C0DF1E80E089024
:1019400060460791714606920593CDF810E0FFF7C7
:10195000CFF910203A9007983B9008993C91069A4D
:101960003D92059B3E9340F20040C4F20220049950
:10197000FFF7BEF9FFE741F25800C4F20200016828
:1019800041F400010160006800F40000109010981C
:101990000390FFE753E03F98006848F20041C4F22B
:1019A000000188424AD1FFE740F60000C4F202205D
:1019B0004FF4007100220292FFF75CFB4FF480109D
:1019C000159002982B9015A800F0BAF9002803D0C2
:1019D000FFE7FEF7E9FFFFE7FFE741F24C00C4F243
:1019E0000200016841F002010160006800F002009D
:1019F0000F900F980190FFE7C0203A9012203B9083
:101A000001203C9000203D9005203E9040F2004097
:101A1000C4F202203AA9FFF76BF9FFE741F25C003C
:101A2000C4F20200016841F002010160006800F0A8
:101A300002000E900E980090FFE7FFE7FFE7FFE738
:101A400040B080BD40F27060C2F20000006841F218
:101A50007801C2F200010A68104408607047000073
:101A600080B582B00020019004210090084600F06B
:101A7000ABF806F067FB009800F00CF8002803D0E4
:101A8000FFE70120019002E000F048F8FFE701982D
:101A900002B080BD80B584B0014603900020029062
:101AA00040F27060C2F200000068002801912ED060
:101AB000FFE740F20400C2F20000006840F27061EB
:101AC000C2F2000109684FF47A72B2FBF1F1B0FB87
:101AD000F1F002F017FB002815D1FFE70398072863
:101AE0000DD8FFE703994FF0FF30002200F04AF8CD
:101AF000039840F27461C2F20001086002E0012024
:101B00000290FFE702E001200290FFE702E00120DF
:101B10000290FFE7029804B080BD000080B584B059
:101B2000FFE741F26000C4F20200016841F00101E8
:101B30000160006800F00100039003980190FFE746
:101B4000FFE741F25800C4F20200016841F0805101
:101B50000160006800F08050029002980090FFE75A
:101B6000052000F031F800F0B7F804B080BD0000A7
:101B700080B582B0014601900198009108F0C6F945
:101B800002B080BD80B58AB013468C468646099067
:101B9000089107920593CDF810C0CDF80CE008F03D
:101BA000CDF9069009980699089A079B0290084675
:101BB00011461A4605F05CFC02990190084601990D
:101BC00008F0C4F90AB080BD80B582B0014601902A
:101BD0000198009108F0DCF902B080BD80B588B0B2
:101BE0000146069047F20000C4F20000006800F4CD
:101BF000C0600490039100F081F8B0F5004F03D16C
:101C0000FFE70120079063E047F20C00C4F20000F8
:101C100000680004002803D5FFE70120079057E083
:101C200004980699884203D1FFE7002007904FE00F
:101C300047F20000C4F20000016821F4C061069A76
:101C40001143016040F20400C2F200000068400944
:101C500045F6C521C0F67C21A0FB0101C90932224D
:101C600001FB02F14CF6CD42CCF6CC42A1FB0212B4
:101C7000012303EBD202059202900191FFE747F2A4
:101C80001400C4F200000068002140050028009103
:101C900006D5FFE70598002818BF01200090FFE750
:101CA0000098C007002804D0FFE705980138059088
:101CB000E5E747F21400C4F2000000684005002880
:101CC00003D5FFE70320079002E000200790FFE71D
:101CD000079808B080BD000047F20800C4F2000079
:101CE000016841F4804101607047000047F2000044
:101CF000C4F20000006800F4C060704782B047F290
:101D00001000C4F20000006800909DF80100C006B9
:101D1000002804D5FFE74FF4805001900DE09DF8B6
:101D200001000006002804D4FFE74FF400400190B2
:101D300002E000200190FFE7FFE7019802B0704742
:101D400080B58CB001460B9000200A9009900B984A
:101D5000006800050028049145D5FFE70B98C06E88
:101D60000028039019D0FFE7039820281CD0FFE734
:101D70000398402808D0FFE7039860281BD0FFE7AE
:101D80000398802817D017E041F20C00C4F202003B
:101D9000016841F48031016011E00B9804300021AA
:101DA00005F0BAFB0A900AE00B982030002105F0FC
:101DB000C5FC0A9003E002E001200A90FFE70A98C0
:101DC00000280CD1FFE741F29C00C4F20200016838
:101DD00021F0E0010B9AD26E1143016002E00A98F3
:101DE0000990FFE7FFE70B980068C004002849D579
:101DF000FFE70B98006F002802901DD0FFE70298C4
:101E0000B0F5807F1FD0FFE70298B0F5007F0AD0C1
:101E1000FFE70298B0F5407F1CD0FFE70298B0F5CD
:101E2000806F17D017E041F20C00C4F20200016885
:101E300041F48031016011E00B980430002105F07D
:101E40006BFB0A900AE00B982030002105F076FC2D
:101E50000A9003E002E001200A90FFE70A980028B8
:101E60000CD1FFE741F29C00C4F20200016821F4AA
:101E7000E0610B9A126F1143016002E00A98099029
:101E8000FFE7FFE70B9800688003002840F1B3806C
:101E9000FFE70020069041F25800C4F202000068FB
:101EA000C000002813D4FFE7FFE741F25800C4F256
:101EB0000200016841F080510160006800F080502C
:101EC000059005980190FFE701200690FFE747F293
:101ED0000000C4F20000016841F480710160FFF766
:101EE000E7F80790FFE747F20000C4F2000000683F
:101EF000C00500280DD4FFE7FFF7DAF8DDF81CE095
:101F0000A0EB0E00032803D3FFE703200A9000E0B4
:101F1000E9E70A9800285DD1FFE741F29000C4F29A
:101F20000200006800F440700890089800281AD059
:101F3000FFE708980B99D1F89010884213D0FFE77B
:101F400041F29000C4F20200016821F4407108914E
:101F5000016841F480310160016821F48031016041
:101F600008990160FFE70898C00700281DD0FFE727
:101F7000FFF79EF80790FFE741F29000C4F20200DD
:101F80000068800700280FD4FFE7FFF791F8DDF81D
:101F90001CE0A0EB0E0041F2893E704503D3FFE741
:101FA00003200A9000E0E7E7FFE70A9800280DD138
:101FB000FFE741F29000C4F20200016821F4407191
:101FC0000B9AD2F890201143016002E00A98099020
:101FD000FFE702E00A980990FFE70698012809D177
:101FE000FFE741F25800C4F20200016821F080517D
:101FF0000160FFE7FFE70B980068C00700280CD0DE
:10200000FFE741F28800C4F20200016821F00301F9
:102010000B9A526B11430160FFE70B980068800731
:1020200000280CD5FFE741F28800C4F202000168E5
:1020300021F00C010B9A926B11430160FFE70B98A2
:102040000068400700280CD5FFE741F28800C4F281
:102050000200016821F030010B9AD26B114301603C
:10206000FFE70B980068000700280CD5FFE741F256
:102070008800C4F20200016821F0C0010B9A126CC2
:1020800011430160FFE70B980068C00600280CD5DB
:10209000FFE741F28800C4F20200016821F44071B8
:1020A0000B9A526C11430160FFE70B9800688006A1
:1020B00000280CD5FFE741F28800C4F20200016855
:1020C00021F440610B9A926C11430160FFE70B9879
:1020D0000068800500280CD5FFE741F28800C4F2B3
:1020E0000200016821F440210B9AD26D1143016076
:1020F000FFE70B980068400500280CD5FFE741F288
:102100008800C4F20200016821F440110B9A126E9B
:1021100011430160FFE70B980068400200280CD5CE
:10212000FFE741F28800C4F20200016821F4400197
:102130000B9A526E11430160FFE70B980068800113
:10214000002838D5FFE70B98806E002800900AD051
:10215000FFE70098B0F1807F06D0FFE70098B0F16C
:10216000007F0AD010E012E041F20C00C4F202003D
:10217000016841F48011016009E00B9804300021EE
:1021800005F0CAF90A9002E001200A90FFE70A98D8
:1021900000280CD1FFE741F28800C4F20200016878
:1021A00021F040710B9A926E1143016002E00A988F
:1021B0000990FFE7FFE70B980068400600280CD560
:1021C000FFE741F28800C4F20200016821F44051A7
:1021D0000B9AD26C11430160FFE70B980068000670
:1021E00000280CD5FFE741F28800C4F20200016824
:1021F00021F440410B9A126D11430160FFE70B98E7
:102200000068C00500280CD5FFE741F28800C4F241
:102210000200016821F440310B9A526D11430160B4
:10222000FFE70B980068C00200280CD5FFE741F2D9
:102230009C00C4F20200016821F003010B9A926D28
:1022400011430160FFE70B9800688004002830D537
:10225000FFE741F28800C4F20200016821F040610A
:102260000B9A526F114301600B98406FB0F1006FF1
:1022700009D1FFE741F20C00C4F20200016841F409
:102280008011016014E00B98406FB0F1806F0ED1A7
:10229000FFE70B980430012105F03EF90A900A98F7
:1022A000002803D0FFE70A980990FFE7FFE7FFE760
:1022B000FFE70B980068000300285BD5FFE7FFE706
:1022C0000B98806FB0F5804F09D1FFE741F29C0079
:1022D000C4F20200016841F48041016013E041F260
:1022E0008800C4F20200016821F040610B9A926FED
:1022F0001143016041F29C00C4F20200016821F424
:1023000080410160FFE7FFE70B98806FB0F1806FBD
:102310000ED1FFE70B980430012105F0FDF80A907B
:102320000A98002803D0FFE70A980990FFE720E009
:102330000B98806FB0F1006F09D1FFE741F20C00FC
:10234000C4F20200016841F48011016010E00B98B2
:10235000806FB0F5804F09D1FFE741F20C00C4F265
:102360000200016841F48031016000E0FFE7FFE70F
:10237000FFE7FFE70B9800684003002831D5FFE72F
:1023800041F28800C4F20200016821F040610B9A1A
:10239000D26F114301600B98C06FB0F1006F09D18B
:1023A000FFE741F20C00C4F20200016841F4801121
:1023B000016015E00B98C06FB0F1806F0ED1FFE7A0
:1023C0000B980430012105F0A7F80A900A9800281C
:1023D00003D0FFE70A980990FFE700E0FFE7FFE777
:1023E000FFE70B9800684004002822D5FFE741F280
:1023F0008800C4F20200016821F040510B9AD2F823
:102400008020114301600B98D0F88000B0F1805F0C
:102410000ED1FFE70B980430022105F07DF80A90F9
:102420000A98002803D0FFE70A980990FFE7FFE722
:10243000FFE70B980068C00300280DD5FFE741F2C5
:102440009C00C4F20200016821F004010B9AD2F84A
:10245000842011430160FFE70B9800688002002888
:102460000DD5FFE741F29C00C4F20200016821F0A3
:1024700018010B9AD2F8882011430160FFE70B98EE
:102480000068C00100281DD5FFE741F29C00C4F29E
:102490000200016821F440110B9AD2F88C201143FC
:1024A00001600B98D0F88C00B0F5001F09D1FFE750
:1024B00041F20C00C4F20200016841F48011016095
:1024C000FFE7FFE709980CB080BD000070470000EF
:1024D00080B588B00A460346069005910020029018
:1024E000069800280192009303D1FFE7012007908E
:1024F0005EE1059842F20001C4F20201096801F0B0
:102500000F01884215D9FFE742F20000C4F2020031
:10251000016821F00F01059A11430160006800F085
:102520000F000599884203D0FFE7012007903FE1A3
:10253000FFE706980068C007002800F0C380FFE7A7
:1025400006984068032847D1FFE741F20000C4F233
:10255000020000688001002803D4FFE701200790F3
:1025600026E105F0AFF9039003984BF2014EC0F25B
:10257000C44E70452FD3FFE741F20800C4F20200B9
:10258000006810F0F00F0CD1FFE741F20800C4F230
:1025900002000168082262F30711016080200290A6
:1025A00018E0069800688007002811D5FFE7069814
:1025B000806800280CD1FFE741F20800C4F2020055
:1025C0000168082262F3071101608020029000E098
:1025D000FFE7FFE7FFE749E00698406802280DD1D2
:1025E000FFE741F20000C4F2020000688003002807
:1025F00003D4FFE701200790DAE01FE00698406867
:1026000000280DD1FFE741F20000C4F2020000688B
:102610008007002803D4FFE701200790C8E00CE002
:1026200041F20000C4F2020000684005002803D413
:10263000FFE701200790BBE0FFE7FFE700F004F9A8
:10264000039003984BF2014EC0F2C44E70450CD378
:10265000FFE741F20800C4F202000168082262F3B9
:102660000711016080200290FFE7FFE741F20800B8
:10267000C4F20200016821F00301069A5268114376
:102680000160FEF715FD0490FFE741F20800C4F277
:102690000200006800F00C0006994968B0EB810F59
:1026A0000FD0FFE7FEF704FDDDF810E0A0EB0E0011
:1026B00041F2893E704503D3FFE70320079077E09E
:1026C000E3E7FFE706980068800700280CD5FFE7DE
:1026D00041F20800C4F20200016821F0F001069AFC
:1026E0009268114301600DE00298802809D1FFE74C
:1026F00041F20800C4F20200016821F0F00101601B
:10270000FFE7FFE7059842F20001C4F20201096801
:1027100001F00F01884215D2FFE742F20000C4F237
:102720000200016821F00F01059A11430160006861
:1027300000F00F000599884203D0FFE701200790C1
:1027400036E0FFE706980068400700280CD5FFE751
:1027500041F20800C4F20200016821F4E061069A27
:10276000D26811430160FFE706980068000700285F
:102770000DD5FFE741F20800C4F20200016821F420
:102780006051069A126941EAC2010160FFE700F058
:102790001DF840F2040EC2F2000ECEF8000040F226
:1027A0007460C2F200000068FFF774F90790FFE759
:1027B000079808B080BD000041F20000C4F202009A
:1027C000016841F4002101607047000080B500F00D
:1027D0003BF841F2080EC4F2020EDEF800E05FFAA8
:1027E0008EFE4FEA1E1E4BF2E841C0F6000111F8C2
:1027F0000E10C84080BD000080B5FFF7E7FF41F232
:10280000080EC4F2020EDEF800E0CEF3022E4BF208
:10281000F841C0F6000111F80E10C84080BD00005C
:1028200080B5FFF7D3FF41F2080EC4F2020EDEF8C6
:1028300000E0CEF3C22E4BF2F841C0F6000111F8D1
:102840000E10C84080BD000089B00020089007909D
:1028500041F20800C4F20200006800F00C0002908F
:1028600041F20C00C4F20200006800F00300019085
:102870000298002808D0FFE702980C282FD1FFE724
:10288000019801282BD1FFE741F20000C4F20200B9
:1028900000680007002809D4FFE741F29400C4F261
:1028A00002000068C0F30320089008E041F2000035
:1028B000C4F202000068C0B200090890FFE708985F
:1028C0004BF24851C0F6000151F8200008900298E0
:1028D000002803D1FFE708980790FFE716E0029869
:1028E000042806D1FFE742F20040C0F2F40007904E
:1028F0000BE00298082806D1FFE741F20020C0F261
:102900007A00079000E0FFE7FFE7FFE702980C2856
:1029100060D1FFE741F20C00C4F20200016801F04F
:10292000030105910068C0B2012101EB1010039072
:102930000598012800902CD0FFE70098022804D0C9
:10294000FFE70098032812D024E0039842F20041E8
:10295000C0F2F401B1FBF0F041F20C01C4F202014B
:102960000968C1F3062100FB01F0069021E00398FD
:1029700041F20021C0F27A01B1FBF0F041F20C010A
:10298000C4F202010968C1F3062100FB01F00690C0
:102990000FE0FFE708980399B0FBF1F041F20C015A
:1029A000C4F202010968C1F3062100FB01F00690A0
:1029B000FFE741F20C00C4F20200006800F0C060C2
:1029C000022101EB1060049006980499B0FBF1F02D
:1029D0000790FFE7079809B07047000080B541F203
:1029E0001C00C4F202000068C00500280BD5FFE7F8
:1029F000FFF76CFD41F2200EC4F2020E4FF480701E
:102A0000CEF80000FFE780BDB0B58CB001460A905B
:102A10000A980028039104D1FFE701200B9000F0F1
:102A20007DBD41F20800C4F20200006800F00C0015
:102A3000079041F20C00C4F20200006800F00300AD
:102A400006900A980068C006002840F12281FFE73E
:102A5000079800280AD0FFE707980C2840F0AD80BF
:102A6000FFE70698012840F0A880FFE741F2000048
:102A7000C4F2020000688007002809D5FFE70A9821
:102A8000C069002804D1FFE701200B9000F046BD8B
:102A90000A98406A41F20001C4F20201096809077C
:102AA0000029029009D5FFE741F20000C4F20200BC
:102AB000006800F0F000019009E041F29400C4F2D7
:102AC0000200006800F4706000090190FFE70198BF
:102AD0000299814229D9FFE70A98406A04F086FFEB
:102AE000002804D0FFE701200B9000F017BDFFE79E
:102AF00041F20000C4F20200016841F008010160E7
:102B0000016821F0F0010A9A526A11430160FFE75F
:102B100041F20400C4F20200016821F47F410A9AE4
:102B2000126A41EA022101602DE0FFE741F2000054
:102B3000C4F20200016841F008010160016821F05F
:102B4000F0010A9A526A11430160FFE741F2040062
:102B5000C4F20200016821F47F410A9A126A41EA34
:102B600002210160079800280CD1FFE70A98406A0B
:102B700004F03CFF002804D0FFE701200B9000F098
:102B8000CDBCFFE7FFE7FFF721FE40F2040EC2F2E3
:102B9000000ECEF8000040F27460C2F2000000683F
:102BA000FEF778FF08900898002804D0FFE70898FF
:102BB0000B9000F0B3BCFFE76AE00A98C0690028F8
:102BC00041D0FFE741F20000C4F20200016841F089
:102BD00001010160FEF76CFA0990FFE741F2000085
:102BE000C4F202000068800700280ED4FFE7FEF759
:102BF0005FFADDF824E0A0EB0E00032804D3FFE722
:102C000003200B9000F08ABCE8E7FFE741F20000E8
:102C1000C4F20200016841F008010160016821F07E
:102C2000F0010A9A526A11430160FFE741F2040081
:102C3000C4F20200016821F47F410A9A126A41EA53
:102C40000221016023E041F20000C4F202000168A9
:102C500021F001010160FEF72BFA0990FFE741F234
:102C60000000C4F202000068800700280ED5FFE7CC
:102C7000FEF71EFADDF824E0A0EB0E00032804D3D3
:102C8000FFE703200B9000F049BCE8E7FFE7FFE710
:102C9000FFE70A980068C007002800F08F80FFE770
:102CA0000798082808D0FFE707980C2817D1FFE7F6
:102CB0000698032813D1FFE741F20000C4F2020096
:102CC00000688003002809D5FFE70A9840680028BB
:102CD00004D1FFE701200B9000F020BC6DE0FFE77E
:102CE0000A984068B0F5803F09D1FFE741F2000043
:102CF000C4F20200016841F48031016020E00A98CA
:102D00004068B0F5A02F0DD1FFE741F20000C4F2FA
:102D10000200016841F480210160016841F48031C2
:102D200001600CE041F20000C4F20200016821F4ED
:102D300080310160016821F480210160FFE7FFE735
:102D4000FFE70A98406800281BD0FFE7FEF7B0F9BC
:102D50000990FFE741F20000C4F20200006880031E
:102D600000280DD4FFE7FEF7A3F9DDF824E0A0EB7F
:102D70000E00652803D3FFE703200B90CEE3E9E7BD
:102D80001AE0FEF795F90990FFE741F20000C4F25E
:102D900002000068800300280DD5FFE7FEF788F9E0
:102DA000DDF824E0A0EB0E00652803D3FFE7032045
:102DB0000B90B3E3E9E7FFE7FFE7FFE70A98006856
:102DC0008007002840F18580FFE70798042808D095
:102DD000FFE707980C2823D1FFE7069802281FD1A8
:102DE000FFE741F20000C4F202000068400500283D
:102DF00008D5FFE70A98C068002803D1FFE7012043
:102E00000B908BE341F20400C4F20200016821F050
:102E1000FE410A9A126941EA02610160FFE757E048
:102E20000A98C06800282FD0FFE741F20000C4F2E2
:102E30000200016841F480710160FEF739F90990E0
:102E4000FFE741F20000C4F20200006840050028DC
:102E50000DD4FFE7FEF72CF9DDF824E0A0EB0E001F
:102E6000032803D3FFE703200B9057E3E9E741F280
:102E70000400C4F20200016821F0FE410A9A1269BE
:102E800041EA0261016022E041F20000C4F2020066
:102E9000016821F480710160FEF70AF90990FFE7EB
:102EA00041F20000C4F202000068400500280DD580
:102EB000FFE7FEF7FDF8DDF824E0A0EB0E000328A5
:102EC00003D3FFE703200B9028E3E9E7FFE7FFE7E1
:102ED000FFE70A9800680007002863D5FFE70A9813
:102EE000406900283AD0FFE70A988069002809D194
:102EF000FFE741F29400C4F20200016821F01001E2
:102F0000016008E041F29400C4F20200016841F05F
:102F100010010160FFE741F29400C4F20200016871
:102F200041F001010160FEF7C3F80990FFE741F2AB
:102F30009400C4F202000068800700280DD4FFE767
:102F4000FEF7B6F8DDF824E0A0EB0E00082803D366
:102F5000FFE703200B90E1E2E9E722E041F2940071
:102F6000C4F20200016821F001010160FEF7A0F83F
:102F70000990FFE741F29400C4F202000068800764
:102F800000280DD5FFE7FEF793F8DDF824E0A0EB6D
:102F90000E00082803D3FFE703200B90BEE2E9E709
:102FA000FFE7FFE70A9800684007002840F13D81ED
:102FB000FFE70020059041F25800C4F202000068CB
:102FC000C000002813D4FFE7FFE741F25800C4F225
:102FD0000200016841F080510160006800F08050FB
:102FE000049004980090FFE701200590FFE747F266
:102FF0000000C4F200000068C005002823D4FFE7E9
:1030000047F20000C4F20000016841F480710160E1
:10301000FEF74EF80990FFE747F20000C4F2000007
:103020000068C00500280DD4FFE7FEF741F8DDF881
:1030300024E0A0EB0E00032803D3FFE703200B904E
:103040006CE2E9E7FFE70A98007AC00700281DD084
:10305000FFE70A98007A400700280DD5FFE741F204
:103060009000C4F20200016841F0040101600168AF
:1030700041F00101016008E041F29000C4F2020059
:10308000016841F001010160FFE70CE041F29000AE
:10309000C4F20200016821F001010160016821F021
:1030A00004010160FFE70A988068002867D0FFE705
:1030B000FDF7FEFF0990FFE741F29000C4F2020025
:1030C0000068800700280FD4FFE7FDF7F1FFDDF867
:1030D00024E0A0EB0E0041F2893E704503D3FFE7E8
:1030E00003200B901AE2E7E70A98007A000600280E
:1030F00022D5FFE741F29000C4F20200016841F0DE
:1031000080010160FFE741F29000C4F20200006814
:10311000000500280FD4FFE7FDF7CAFFDDF824E023
:10312000A0EB0E0041F2893E704503D3FFE7032078
:103130000B90F3E1E7E721E041F29000C4F20200D6
:10314000016821F080010160FFE741F29000C4F2C4
:1031500002000068000500280FD5FFE7FDF7A8FF73
:10316000DDF824E0A0EB0E0041F2893E704503D368
:10317000FFE703200B90D1E1E7E7FFE747E0FDF72A
:1031800097FF0990FFE741F29000C4F20200006847
:10319000800700280FD5FFE7FDF78AFFDDF824E060
:1031A000A0EB0E0041F2893E704503D3FFE70320F8
:1031B0000B90B3E1E7E741F29000C4F2020000682F
:1031C0000006002822D5FFE741F29000C4F2020079
:1031D000016821F080010160FFE741F29000C4F234
:1031E00002000068000500280FD5FFE7FDF760FF2B
:1031F000DDF824E0A0EB0E0041F2893E704503D3D8
:10320000FFE703200B9089E1E7E7FFE7FFE7059879
:10321000012809D1FFE741F25800C4F20200016819
:1032200021F080510160FFE7FFE70A9800688006FF
:1032300000284CD5FFE70A98806A002823D0FFE7D2
:1032400041F29800C4F20200016841F001010160FE
:10325000FDF72EFF0990FFE741F29800C4F202004B
:103260000068800700280DD4FFE7FDF721FFDDF897
:1032700024E0A0EB0E00032803D3FFE703200B900C
:103280004CE1E9E722E041F29800C4F20200016853
:1032900021F001010160FDF70BFF0990FFE741F20A
:1032A0009800C4F202000068800700280DD5FFE7EF
:1032B000FDF7FEFEDDF824E0A0EB0E00032803D3AB
:1032C000FFE703200B9029E1E9E7FFE7FFE70A9812
:1032D000C06A002800F01F81FFE741F20800C4F235
:1032E0000200006800F00C000C2800F0BD80FFE731
:1032F0000A98C06A02287AD1FFE741F20000C4F2BE
:103300000200016821F080710160FDF7D1FE099093
:10331000FFE741F20000C4F20200006880010028CB
:103320000DD5FFE7FDF7C4FEDDF824E0A0EB0E00AD
:10333000032803D3FFE703200B90EFE0E9E741F216
:103340000C00C4F20200016848F20C02C0F29F12A5
:1033500011400A9A136BD2F834C0D2F838E0D46B1B
:103360006FF00F0505EB0C1C43EA0C0343EA0E2338
:10337000D2F840C040F2000ECFF6E07E0EEA0C5CC0
:10338000ACF5001C43EA0C03526C4FF07E4C0CEA87
:10339000026202F17E421A4342EAC46211430160B2
:1033A00041F20001C4F202010A6842F080720A6030
:1033B000016841F080710160FDF77AFE0990FFE736
:1033C00041F20000C4F202000068800100280DD420
:1033D000FFE7FDF76DFEDDF824E0A0EB0E0003280B
:1033E00003D3FFE703200B9098E0E9E73BE041F2CD
:1033F0000000C4F20200016821F0807101600068E1
:1034000010F0205F09D1FFE741F20C00C4F2020086
:10341000016821F003010160FFE741F20C00C4F2F2
:10342000020001684FF6FF72CFF6EE6211400160B4
:10343000FDF73EFE0990FFE741F20000C4F20200F2
:103440000068800100280DD5FFE7FDF731FEDDF8AB
:1034500024E0A0EB0E00032803D3FFE703200B902A
:103460005CE0E9E7FFE755E00A98C06A012803D16C
:10347000FFE701200B9051E041F20C00C4F2020082
:1034800000680690069800F003000A99096B8842CC
:103490003BD1FFE7069800F0F0000A99496B6FF006
:1034A0000F0202EB011188422FD1FFE7069800F4CA
:1034B000FE400A99896BB0EB012F26D1FFE70698F1
:1034C00000F078400A99C96BB0EBC16F1DD1FFE7DE
:1034D000069800F4C0000A99096C0022CFF6E07249
:1034E00002EA0151A1F5001188420ED1FFE70698CA
:1034F00000F0C0600A99496C4FF07E4202EA016117
:1035000001F17E41884203D0FFE701200B9005E0E6
:10351000FFE7FFE7FFE700200B90FFE70B980CB0F9
:10352000B0BD000080B584B001460290029800282A
:10353000009103D1FFE7012003908DE00298406ADB
:1035400000280CD1FFE702984068B0F5827F01D1D6
:10355000FFE703E002980021C161FFE705E0029860
:103560000021016102984161FFE702980021816218
:103570000298006E002807D1FFE702980021C1657C
:10358000029800F06DF8FFE70298022101660298A8
:103590000068016821F0400101600298C068B0F540
:1035A000E06F03D9FFE70020019003E04FF4805063
:1035B0000190FFE70298C068B0F5706F0AD0FFE78E
:1035C0000298C068B0F5E06F04D0FFE702980021D0
:1035D0008162FFE70298016842688368D0F810C0F2
:1035E00002F4827203F404431A440CF002031A44F6
:1035F000436903F001031A44836903F400731A4416
:10360000C36903F038031A44036A03F080031A44C1
:10361000806A00F40050104308600298418B01F06A
:1036200004010268C368D0F824C0406B0CF0100C91
:10363000614400F00800084403F4706108440199F3
:1036400001F48051084450600298002141660298BC
:10365000012202660391FFE7039804B080BD0000D9
:1036600080B592B001461190002010900F900E90FE
:103670000D900C901198006843F60042C4F20002CD
:10368000904208915AD1FFE7FFE741F25800C4F297
:103690000200016841F400410160006800F400404C
:1036A0000B900B980790FFE7FFE741F24C00C4F244
:1036B0000200016841F004010160006800F00400AC
:1036C0000A900A980690FFE7FFE741F24C00C4F227
:1036D0000200016841F002010160006800F0020090
:1036E000099009980590FFE74FF4C0500C90022014
:1036F0000D9000210E910F910622109240F60003CA
:10370000C4F202230DF1300C049018460391614677
:103710000292CDF804C0FDF7EBFA08200C90049853
:103720000D9003990E910F91029A109240F2004071
:10373000C4F202200199FDF7DBFAFFE712B080BD69
:10374000B0B58EB09C4696460C4605460C900B9143
:10375000ADF82A200993002007900C984068B0F536
:10376000827FCDF818C0CDF814E00494039516D1EB
:10377000FFE70C988068002811D1FFE70C9804211E
:1037800001660C980B99BDF82A30099AEC46CCF8E2
:1037900000200291029A00F08FFA0D900FE1FFE7EE
:1037A0000C98C06D012803D1FFE702200D9006E1BF
:1037B0000C980121C165FFE7FFE7FDF779FC089050
:1037C0000C98006E012803D0FFE702200790EBE081
:1037D0000B98002805D0FFE7BDF82A00002803D188
:1037E000FFE701200790DFE00C98042101660C98A8
:1037F000002141660B980C9A1064BDF82A000C9ABF
:10380000A2F84400BDF82A000C9AA2F846000C98D1
:1038100081630C9881870C98C1870C98C1640C98BF
:1038200001650C98C068B0F5E06F07D9FFE70C9808
:103830000068416821F48051416006E00C980068FE
:10384000416841F480514160FFE70C988068B0F511
:10385000004F0DD1FFE70C980068016821F040018E
:1038600001600C980068016821F480410160FFE765
:103870000C980068006800F04000402807D0FFE77F
:103880000C980068016841F040010160FFE70C9866
:10389000C068B0F5E06F39D8FFE7FFE70C98B0F8E3
:1038A0004600002831D0FFE70C9800688068C00708
:1038B000002811D0FFE70C980068007B0C99096C78
:1038C00008700C98016C013101640C98B0F8461036
:1038D0000139A0F8461017E0FDF7EAFBDDF820E01B
:1038E000A0EB0E00DDF824E0704505D3FFE7099852
:1038F0000130002804D1FFE70998002803D1FFE731
:103900000320079050E0FFE7C8E738E0FFE70C9896
:10391000B0F84600002831D0FFE70C9800688068B6
:10392000C007002811D0FFE70C980068C0680C9908
:10393000096C08800C98016C023101640C98B0F895
:1039400046100139A0F8461017E0FDF7B1FBDDF88D
:1039500020E0A0EB0E00DDF824E0704505D3FFE782
:1039600009980130002804D1FFE70998002803D105
:10397000FFE70320079017E0FFE7C8E7FFE70C9891
:103980000999089A04F0B0F8002804D0FFE70C98D1
:1039900020214166FFE70C98406E002803D0FFE726
:1039A00001200790FFE7FFE70C9801210166FFE780
:1039B0000C980021C165FFE707980D90FFE70D986F
:1039C0000EB0B0BDB0B58EB09C4696460C460546CE
:1039D0000C900B91ADF82A20099300200790CDF8A8
:1039E00010C0CDF80CE002940195FFE70C98C06D73
:1039F000012803D1FFE702200D905AE10C98012124
:103A0000C165FFE7FFE7FDF753FB0890BDF82A000B
:103A1000ADF81A000C98006E012803D0FFE70220D1
:103A200007903BE10B98002805D0FFE7BDF82A007E
:103A3000002803D1FFE7012007902FE10C98032114
:103A400001660C98002141660B980C9A9063BDF8B2
:103A50002A000C9A9087BDF82A000C9AD0870C98FF
:103A600001640C98A0F844100C98A0F846100C982B
:103A700001650C98C1640C988068B0F5004F0DD1B9
:103A8000FFE70C980068016821F0400101600C9884
:103A90000068016841F480410160FFE70C9800680C
:103AA000006800F04000402807D0FFE70C9800684D
:103AB000016841F040010160FFE70C98C068B0F573
:103AC000E06F4DD9FFE70C984068002805D0FFE76C
:103AD000BDF81A0001280ED1FFE70C980168806B31
:103AE0000088C8600C98816B023181630C98C18F8B
:103AF0000139C187FFE7FFE70C98C08F00282ED05F
:103B0000FFE70C9800688068800700280ED5FFE763
:103B10000C980168806B0088C8600C98816B02313A
:103B200081630C98C18F0139C18717E0FDF7C0FA96
:103B3000DDF820E0A0EB0E00DDF824E0704505D3B1
:103B4000FFE709980130002804D1FFE70998002811
:103B500003D1FFE703200790A0E0FFE7CCE774E084
:103B60000C984068002805D0FFE7BDF81A0001282E
:103B700022D1FFE70C98C08F02280ED3FFE70C98E4
:103B80000168806B0088C8600C98816B023181638A
:103B90000C98C18F0239C1870DE00C980168806BC9
:103BA000007808730C98816B013181630C98C18F88
:103BB0000139C187FFE7FFE7FFE70C98C08F0028B6
:103BC00042D0FFE70C98006880688007002822D563
:103BD000FFE70C98C08F02280ED3FFE70C9801680E
:103BE000806B0088C8600C98816B023181630C98EF
:103BF000C18F0239C1870DE00C980168806B007895
:103C000008730C98816B013181630C98C18F013965
:103C1000C187FFE717E0FDF74BFADDF820E0A0EBE6
:103C20000E00DDF824E0704505D3FFE70998013068
:103C3000002804D1FFE70998002803D1FFE70320FB
:103C400007902BE0FFE7B8E7FFE70C980999089A7F
:103C500003F0B2FF002804D0FFE70C982021416652
:103C6000FFE70C98806800280FD1FFE7FFE70020EE
:103C700005900C980068C06805900C9800688068F2
:103C8000059005980090FFE7FFE70C98406E00282C
:103C900003D0FFE701200790FFE7FFE70C98012121
:103CA0000166FFE70C980021C165FFE707980D90BA
:103CB000FFE70D980EB0B0BD70B592B0DDF858C0FA
:103CC0009E4614460D46064610900F910E92ADF892
:103CD00036300120089000200790CDF818C0CDF8AC
:103CE00014E0049403950296FFE71098C06D012834
:103CF00003D1FFE70220119001E210980121C16574
:103D0000FFE7FFE7FDF7D4F909901098006E0A90DD
:103D1000109840680B90BDF83600ADF83400BDF83F
:103D20003600ADF832000A98012811D0FFE70B9851
:103D3000B0F5827F09D1FFE710988068002804D190
:103D4000FFE70A98042803D0FFE702200790CBE1A1
:103D50000F98002809D0FFE70E98002805D0FFE74C
:103D6000BDF83600002803D1FFE701200790BBE132
:103D70001098006E042804D0FFE710980521016612
:103D8000FFE71098002141660E98109A1064BDF864
:103D90003600109AA2F84600BDF83600109AA2F834
:103DA00044000F98109A9063BDF83600109AD0879F
:103DB000BDF83600109A90871098C164109801657C
:103DC0001098C068B0F5E06F05D8FFE7BDF8320085
:103DD000022807D3FFE710980068416821F480515A
:103DE000416006E010980068416841F480514160EC
:103DF000FFE710980068006800F04000402807D0F6
:103E0000FFE710980068016841F040010160FFE79A
:103E10001098C068B0F5E06F40F28380FFE710981B
:103E20004068002805D0FFE7BDF8340001280ED116
:103E3000FFE710980168806B0088C8601098816B5C
:103E4000023181631098C18F0139C187FFE7FFE715
:103E50001098C08F01210028019108D1FFE7109828
:103E6000B0F84600002818BF01200190FFE7019834
:103E7000C007002854D0FFE71098006880688007CA
:103E8000002819D5FFE71098C08F002814D0FFE74D
:103E90000898012810D1FFE710980168806B00880E
:103EA000C8601098816B023181631098C18F01390D
:103EB000C18700200890FFE7109800688068C0075D
:103EC000002819D0FFE71098B0F84600002813D05A
:103ED000FFE710980068C0681099096C0880109876
:103EE000016C023101641098B0F846100139A0F855
:103EF000461001200890FFE7FDF7DAF8DDF824E02E
:103F0000A0EB0E00DDF858E0704508D3FFE71698E7
:103F10000130002803D0FFE703200790E4E097E793
:103F2000D3E010984068002805D0FFE7BDF83400C2
:103F3000012822D1FFE71098C08F02280ED3FFE797
:103F400010980168806B0088C8601098816B0231FE
:103F500081631098C18F0239C1870DE01098016804
:103F6000806B007808731098816B01318163109821
:103F7000C18F0139C187FFE7FFE7FFE71098C08FC6
:103F800001210028009108D1FFE71098B0F8460001
:103F9000002818BF01200090FFE70098C007002804
:103FA00000F09280FFE71098006880688007002882
:103FB0002DD5FFE71098C08F002828D0FFE708987C
:103FC000012824D1FFE71098C08F02280ED3FFE705
:103FD00010980168806B0088C8601098816B02316E
:103FE00081631098C18F0239C1870DE01098016874
:103FF000806B007808731098816B01318163109891
:10400000C18F0139C187FFE700200890FFE71098B2
:1040100000688068C00700283ED0FFE71098B0F81D
:104020004600002838D0FFE71098B0F84600022874
:104030001ED3FFE710980068C0681099096C0880CB
:104040001098016C023101641098B0F846100239E2
:10405000A0F846101098B0F84600012807D8FFE7EE
:1040600010980068416841F480514160FFE710E01A
:1040700010980068007B1099096C08701098016C0A
:10408000013101641098B0F846100139A0F84610CB
:10409000FFE701200890FFE7FDF70AF8DDF824E0CC
:1040A000A0EB0E00DDF858E0704505D3FFE7169849
:1040B0000130002804D1FFE71698002803D1FFE75C
:1040C0000320079010E059E7FFE710981699099A26
:1040D00003F072FD002806D0FFE70120079010983A
:1040E00020214166FFE7FFE7109801210166FFE705
:1040F00010980021C165FFE707981190FFE711981C
:1041000012B070BD80B582B0014601900198009157
:1041100003F09CFF02B080BD82B001460190009187
:1041200002B0704782B001460190009102B0704722
:1041300082B001460190009102B0704787B00A46F4
:1041400003460590049101920093FFE70598C06B28
:10415000012803D1FFE7022006908DE00598012198
:10416000C163FFE7FFE70598022101640598006835
:104170004068039005980068806802900598006880
:1041800042F60041C4F20101884209D0FFE70598D8
:10419000006843F20041C4F2010188420AD1FFE7FE
:1041A000039820F470000390049840680399084332
:1041B0000390FFE7039820F07000039004980068D4
:1041C0000399084303900398059909684860059886
:1041D000006842F60041C4F20101884233D0FFE793
:1041E00005980068B0F1804F2DD0FFE70598006872
:1041F00040F20041C4F20001884224D0FFE7059854
:10420000006840F60001C4F2000188421BD0FFE7BD
:104210000598006840F60041C4F20001884212D0BF
:10422000FFE70598006843F20041C4F201018842AB
:1042300009D0FFE70598006844F20001C4F20101CB
:1042400088420ED1FFE7029820F080000290049887
:10425000806802990843029002980599096888606D
:10426000FFE7059801210164FFE705980021C1637C
:10427000FFE700200690FFE7069807B070470000B0
:1042800080B584B00146029002980028019103D1C4
:10429000FFE70120039039E00298006C002807D165
:1042A000FFE702980021C163029800F033F8FFE7AE
:1042B000029802210164029850F8041B00900846FD
:1042C000009904F011F802980121C166FFE70298F5
:1042D00001214164029881640298C16402980165D9
:1042E0000298416502988165FFE7FFE70298012186
:1042F000C165029801660298416602988166FFE7EF
:1043000002980121016400200390FFE7039804B0A4
:1043100080BD000080B588B001460790079800680E
:1043200040F20042C4F200029042049111D1FFE732
:10433000FFE741F25800C4F20200016841F00201B7
:104340000160006800F00200069006980390FFE705
:1043500024E00798006841F20001C4F2000188429D
:104360001BD1FFE7FFE741F25800C4F202000168E9
:1043700041F010010160006800F010000590059800
:104380000290FFE73120012101900091009AFDF792
:10439000F9FB0198FDF7ECFBFFE7FFE708B080BDF4
:1043A00084B0014602900298006C0128009103D06D
:1043B000FFE70120039067E0029802210164029860
:1043C0000068C16841F00101C1600298006842F6CE
:1043D0000041C4F20101884233D0FFE7029800682F
:1043E000B0F1804F2DD0FFE70298006840F2004105
:1043F000C4F20001884224D0FFE70298006840F62A
:104400000001C4F2000188421BD0FFE70298006857
:1044100040F60041C4F20001884212D0FFE7029842
:10442000006843F20041C4F20101884209D0FFE76D
:104430000298006844F20001C4F20101884219D1D7
:10444000FFE70298006880680721C0F20101084078
:104450000190019806280CD0FFE70198B0F5803F45
:1044600007D0FFE702980068016841F00101016090
:10447000FFE706E002980068016841F00101016071
:10448000FFE700200390FFE7039804B070470000A7
:1044900080B58CB00A4603460A90099107920693AC
:1044A000FFE70A98C06B012803D1FFE702200B90B9
:1044B000B5E00A980121C163FFE7FFE70A980221EE
:1044C00001640A9800688068089008984FF688711F
:1044D000CFF6CE7108400890089820F47F400890ED
:1044E00008980A990968886009980068002805906A
:1044F00000F08280FFE7059810287DD0FFE705983F
:10450000202879D0FFE70598302875D0FFE7059877
:10451000402861D0FFE7059850283DD0FFE7059877
:10452000602849D0FFE7059870280BD0FFE7059871
:10453000B0F5805F05D0FFE70598B0F5005F19D0B2
:1045400061E061E00A98006809994A688B68C96867
:1045500004911946049B03F0C1FF0A980068806823
:104560000890089840F07700089008980A99096820
:10457000886049E00A98006809994A688B68C968A8
:1045800003911946039B03F0A9FF0A98006881680C
:1045900041F48041816037E00A98006809994A68CF
:1045A000C96802911146029A04F054FB0A98006807
:1045B000502103F0B9FF27E00A98006809994A687A
:1045C000C96801911146019A04F076FB0A980068C7
:1045D000602103F0A9FF17E00A98006809994A686A
:1045E000C96800911146009A04F034FB0A980068EB
:1045F000402103F099FF07E00A98006809990968CB
:1046000003F092FF00E0FFE70A9801210164FFE751
:104610000A980021C163FFE700200B90FFE70B9889
:104620000CB080BD82B001460190009102B070478D
:1046300080B582B00146019001980068006900F0E1
:1046400002000022B2EB500F009129D0FFE7019841
:104650000068C06800F002000021B1EB500F1ED0CE
:10466000FFE7019800686FF00201016101980121E4
:10467000C1610198006880698007002804D0FFE7C5
:104680000198FFF7CFFF06E0019800F067F9019865
:1046900000F096FAFFE701980021C161FFE7FFE70C
:1046A00001980068006900F004000021B1EB900F50
:1046B00029D0FFE701980068C06800F004000021DD
:1046C000B1EB900F1ED0FFE7019800686FF0040176
:1046D000016101980221C16101980068806910F4AC
:1046E000407F04D0FFE70198FFF79CFF06E00198A8
:1046F00000F034F9019800F063FAFFE70198002117
:10470000C161FFE7FFE701980068006900F0080059
:104710000021B1EBD00F29D0FFE701980068C068F5
:1047200000F008000021B1EBD00F1ED0FFE7019888
:1047300000686FF00801016101980421C1610198CE
:104740000068C0698007002804D0FFE70198FFF7E0
:1047500069FF06E0019800F001F9019800F030FAD5
:10476000FFE701980021C161FFE7FFE701980068BA
:10477000006900F010000021B1EB101F29D0FFE705
:1047800001980068C06800F010000021B1EB101F14
:104790001ED0FFE7019800686FF0100101610198D9
:1047A0000821C16101980068C06910F4407F04D0FD
:1047B000FFE70198FFF736FF06E0019800F0CEF81A
:1047C000019800F0FDF9FFE701980021C161FFE7C2
:1047D000FFE7019800680069C007002811D0FFE7D3
:1047E00001980068C068C007002809D0FFE7019859
:1047F00000686FF001010161019800F019FBFFE70B
:10480000FFE7019800680069C0B20021B1EBD01F3A
:1048100013D0FFE701980068C068C0B20021B1EB77
:10482000D01F09D0FFE7019800686FF08001016197
:104830000198FFF777FCFFE7FFE701980068006940
:1048400000F480700021B1EB102F13D0FFE7019826
:104850000068C068C0B20021B1EBD01F09D0FFE7EB
:10486000019800686FF4807101610198FFF754FCB2
:10487000FFE7FFE701980068006900F040000021B1
:10488000B1EB901F14D0FFE701980068C06800F0FA
:1048900040000021B1EB901F09D0FFE701980068AC
:1048A0006FF040010161019800F098FBFFE7FFE71E
:1048B00001980068006900F020000021B1EB501F52
:1048C00014D0FFE701980068C06800F020000021C4
:1048D000B1EB501F09D0FFE7019800686FF020018D
:1048E00001610198FFF724FCFFE7FFE702B080BDFC
:1048F00080B58AB001460990002008900790069084
:10490000059004900998006840F20042C4F2000249
:104910009042029120D1FFE7FFE741F24C00C4F240
:104920000200016841F004010160006800F0040029
:10493000039003980190FFE7402004900220059027
:10494000002106910791089040F60000C4F2022071
:1049500004A9FCF7CDF9FFE70AB080BD82B001469B
:104960000190009102B0704780B588B013468C4624
:1049700086460690059104920393CDF808C0CDF8C1
:1049800004E0FFE70698C06B012803D1FFE702208F
:104990000790C2E006980121C163FFE7FFE7049892
:1049A0001428009000F2B0800099DFE801F00BAD10
:1049B000ADAD26ADADAD41ADADAD5CADADAD77ADA1
:1049C000ADAD920006980068059903F0C9FD069800
:1049D0000068816941F00801816106980068816979
:1049E00021F0040181610598006906990968D1F8F0
:1049F00018E040EA0E00886187E006980068059993
:104A000003F05CFE06980068816941F400618161F1
:104A100006980068816921F48061816105980069C8
:104A200006990968D1F818E04EEA002088616CE028
:104A300006980068059903F001FF06980068C169AF
:104A400041F00801C16106980068C16921F00401C4
:104A5000C1610598006906990968D1F81CE040EA2F
:104A60000E00C86151E006980068059903F0A4FFA4
:104A700006980068C16941F40061C1610698006848
:104A8000C16921F48061C1610598006906990968CE
:104A9000D1F81CE04EEA0020C86136E006980068B4
:104AA000059903F0FBFF06980068416D41F008018D
:104AB000416506980068416D21F004014165059843
:104AC000006906990968D1F854E040EA0E0048658B
:104AD0001BE006980068059904F04EF806980068F7
:104AE000416D41F40061416506980068416D21F413
:104AF000806141650598006906990968D1F854E01C
:104B00004EEA0020486500E0FFE7FFE70698002135
:104B1000C163FFE700200790FFE7079808B080BD5A
:104B200080B584B00146029002980028019103D11B
:104B3000FFE70120039039E00298006C002807D1BC
:104B4000FFE702980021C163029800F033F8FFE705
:104B5000029802210164029850F8041B0090084654
:104B6000009903F0C1FB02980121C166FFE702989A
:104B700001214164029881640298C1640298016530
:104B80000298416502988165FFE7FFE702980121DD
:104B9000C165029801660298416602988166FFE746
:104BA00002980121016400200390FFE7039804B0FC
:104BB00080BD000082B001460190009102B07047B4
:104BC00082B001460190009102B0704780B592B06A
:104BD0000A46034610900F910F9800280D920C93EF
:104BE00004D1FFE71098406C0B902FE00F98042839
:104BF00004D1FFE71098806C0A9024E00F980828F1
:104C000004D1FFE71098C06C099019E00F980C28A8
:104C100004D1FFE71098006D08900EE00F9810285F
:104C200004D1FFE71098406D079003E01098806D65
:104C30000790FFE707980890FFE708980990FFE7BB
:104C400009980A90FFE70A980B90FFE70B98012854
:104C500003D0FFE701201190E6E00F98002804D16F
:104C6000FFE710980221416434E00F98042805D131
:104C7000FFE7109802218164069128E00F98082828
:104C800005D1FFE710980221C16405911CE00F983F
:104C90000C2805D1FFE7109802210165049110E06E
:104CA0000F98102805D1FFE7109802214165039164
:104CB00004E01098022181650391FFE703980490B6
:104CC000FFE704980590FFE705980690FFE7069830
:104CD0000290FFE7109800680F990122019203F0FB
:104CE000D7FB10980068019942F60042C4F2010215
:104CF000904200912DD0FFE710980068012143F207
:104D00000042C4F201029042009122D0FFE71098C5
:104D10000068012144F20002C4F2010290420091B5
:104D200017D0FFE710980068012144F20042C4F256
:104D30000102904200910CD0FFE7109800684BF6FA
:104D40000001CBF6FE710844B0FA80F040090090F3
:104D5000FFE70098C007002807D0FFE71098006819
:104D6000416C41F400414164FFE71098006842F64D
:104D70000041C4F20101884233D0FFE71098006877
:104D8000B0F1804F2DD0FFE71098006840F200414D
:104D9000C4F20001884224D0FFE71098006840F672
:104DA0000001C4F2000188421BD0FFE710980068A0
:104DB00040F60041C4F20001884212D0FFE710988B
:104DC000006843F20041C4F20101884209D0FFE7C4
:104DD0001098006844F20001C4F20101884219D120
:104DE000FFE71098006880680721C0F201010840C1
:104DF0000E900E9806280CD0FFE70E98B0F5803F75
:104E000007D0FFE710980068016841F001010160D8
:104E1000FFE706E010980068016841F001010160B9
:104E2000FFE700201190FFE7119812B080BD00004D
:104E300080B586B001460590059840F61032C2F262
:104E400000029042049140F0C680FFE740F67E00E9
:104E5000C2F200000088B0F5FA7F16DAFFE740F6EC
:104E60007E00C2F2000001880531018040F63E70EC
:104E7000C2F20000018805310180008840F6A021BF
:104E8000C2F20001096848632FE040F67E00C2F2DA
:104E900000000088B0F5FA7F1FDBFFE740F67E00D8
:104EA000C2F200000088B0F57A7F16DAFFE740F61C
:104EB0007E00C2F2000001880531018040F63E709C
:104EC000C2F20000018805390180008840F6A02167
:104ED000C2F200010968486306E040F67E00C2F2B3
:104EE000000000210180FFE7FFE701F0D5FE41F25D
:104EF000700EC2F2000EDEF800000130CEF80000A5
:104F0000DEF800004CF6CD4ECCF6CC4EA0FB0EE108
:104F1000C90801EB8101A0EB41000028CDF80CE0AD
:104F200007D1FFE740F68100C2F2000001210170C5
:104F300050E041F27000C2F20000006848F21F51D8
:104F4000C5F2EB11A0FB0112D208192302FB1300DA
:104F50000028029107D1FFE740F68300C2F200006B
:104F60000121017035E041F27000C2F200000068DA
:104F700048F21F51C5F2EB11A0FB011212093223B6
:104F800002FB13000028019107D1FFE740F68000E3
:104F9000C2F20000012101701AE041F27000C2F279
:104FA0000000006848F2B511C1F64E31A0FB0112B5
:104FB0001209962302FB13000028009107D1FFE796
:104FC00040F68200C2F2000001210170FFE7FFE716
:104FD000FFE7FFE7FFE706B080BD000082B00146B3
:104FE0000190009102B0704784B001460290009198
:104FF000FFE70298D0F88000012803D1FFE70220E4
:1050000003902BE002980121C0F88010FFE7FFE732
:1050100002982421C0F8841002980068006801906A
:1050200002980068016821F001010160019820F0F8
:105030000050019002980021416601980299096888
:10504000086002982021C0F88410FFE70298002130
:10505000C0F88010FFE700200390FFE7039804B03A
:105060007047000084B00A4603460390ADF80A106A
:105070000192009304B0704782B001460190009104
:1050800002B0704780B586B00A460346049003918B
:1050900001920093FFE70498D0F88000012803D123
:1050A000FFE70220059031E004980121C0F880104C
:1050B000FFE7FFE704982421C0F8841004980068F3
:1050C0000068029004980068016821F00101016005
:1050D00004980068806820F0606003990843049990
:1050E00009688860049803F021FE02980499096811
:1050F000086004982021C0F88410FFE7049800217C
:10510000C0F88010FFE700200590FFE7059806B083
:1051100080BD000080B586B00A4603460490039126
:1051200001920093FFE70498D0F88000012803D192
:10513000FFE70220059031E004980121C0F88010BB
:10514000FFE7FFE704982421C0F884100498006862
:105150000068029004980068016821F00101016074
:1051600004980068806820F060400399084304991F
:1051700009688860049803F0D9FD029804990968C9
:10518000086004982021C0F88410FFE704980021EB
:10519000C0F88010FFE700200590FFE7059806B0F3
:1051A00080BD000082B001460190009102B07047BE
:1051B00082B001460190009102B0704782B0014672
:1051C0000190009102B0704780B58AB00146099005
:1051D00009980068C06908900998006800680790FD
:1051E0000998006880680690089840F60F02104001
:1051F00005900598002802911DD1FFE79DF8200039
:105200008006002816D5FFE79DF81C0080060028C0
:1052100006D4FFE79DF81B00C00600280AD5FFE76B
:105220000998006F002804D0FFE70998016F8847AC
:10523000FFE70FE2FFE70598002800F00381FFE792
:1052400006980121C1F20001084209D1FFE7079841
:1052500040F22011C0F20041084200F0F380FFE765
:105260009DF82000C007002812D0FFE79DF81D0020
:10527000C00700280CD0FFE70998006801210162EF
:105280000998D0F88C1041F00101C0F88C10FFE7AC
:105290009DF820008007002812D5FFE79DF8180030
:1052A000C00700280CD0FFE70998006802210162BE
:1052B0000998D0F88C1041F00401C0F88C10FFE779
:1052C0009DF820004007002812D5FFE79DF8180040
:1052D000C00700280CD0FFE709980068042101628C
:1052E0000998D0F88C1041F00201C0F88C10FFE74B
:1052F0009DF820000007002819D5FFE79DF81C0045
:105300008006002807D4FFE706980121C1F20001BA
:1053100008420CD0FFE7099800680821016209984B
:10532000D0F88C1041F00801C0F88C10FFE79DF810
:1053300021000007002813D5FFE79DF81F00400754
:1053400000280DD5FFE7099800684FF4006101625D
:105350000998D0F88C1041F02001C0F88C10FFE7BC
:105360000998D0F88C0000286BD0FFE79DF820004A
:105370008006002816D5FFE79DF81C00800600284F
:1053800006D4FFE79DF81B00C00600280AD5FFE7FA
:105390000998006F002804D0FFE70998016F88473B
:1053A000FFE7FFE70998D0F88C000490099800689F
:1053B000806800F04000402806D0FFE79DF810000C
:1053C00010F0280F33D0FFE7099803F00BFE09987F
:1053D000006880684006002824D5FFE70998006827
:1053E000816821F0400181600998C06F002814D0C5
:1053F000FFE70998C06F48F6BD71C0F6000141642F
:105400000998C06FFBF7B2FB002805D0FFE70998A9
:10541000C06F416C8847FFE703E00998FFF7CEFEB5
:10542000FFE703E00998FFF7C9FEFFE708E00998E6
:10543000FFF7C4FE09984FF0000EC0F88CE0FFE7BC
:10544000FFE707E10998C06E012840F0A280FFE75E
:105450009DF82000C006002840F19B80FFE79DF8E2
:105460001C00C006002840F19480FFE709980068FE
:10547000102101620998006880684006002850D514
:10548000FFE70998C06F00684068ADF80E00BDF8EE
:105490000E00002844D0FFE7BDF80E000999B1F8CE
:1054A0005C1088423CDAFFE7BDF80E000999A1F8CC
:1054B0005E000998C06F006800688006002825D447
:1054C000FFE709980068016821F48071016009987C
:1054D0000068816821F00101816009980068816895
:1054E00021F04001816009982021C0F888100998B6
:1054F0000021C16609980068016821F0100101606F
:105500000998C06FFBF7DEFA0190FFE70998B0F841
:105510005C10B0F85E20891A89B2FFF7A3FDFFE79F
:1055200098E00998B0F85C10B0F85E00081AADF881
:105530000C000998B0F85E00002829D0FFE7BDF8FC
:105540000C00002824D0FFE709980068016821F4C6
:10555000907101600998006881684FF6FE72CEF67E
:10556000FF721140816009982021C0F888100998C5
:105570000021C1660998016709980068016821F057
:10558000100101600998BDF80C10FFF76BFDFFE7F3
:1055900060E09DF82200C00600280FD5FFE79DF8C7
:1055A0001A004006002809D5FFE7099800684FF463
:1055B000801101620998FFF7FBFD4BE09DF8200088
:1055C0000006002816D5FFE79DF81C0000060028FD
:1055D00006D4FFE79DF81A00000600280AD5FFE769
:1055E0000998406F002804D0FFE70998416F884769
:1055F000FFE72FE09DF82000400600280AD5FFE7CE
:105600009DF81C004006002804D5FFE7099803F028
:1056100013FD1FE09DF82200000600280AD5FFE7D1
:105620009DF81F004006002804D5FFE70998FFF702
:10563000B9FD0FE09DF82300C00700280AD0FFE75E
:105640009DF81F000006002804D5FFE70998FFF722
:1056500013FDFFE70AB080BD80B584B0014602901B
:1056600002980028019103D1FFE70120039047E051
:1056700002988069002801D0FFE700E0FFE7029868
:10568000D0F88400002808D1FFE702980021C0F874
:105690008010029800F038F8FFE702982421C0F843
:1056A000841002980068016821F0010101600298ED
:1056B00003F0CEFF012803D1FFE7012003901FE094
:1056C0000298806A002804D0FFE7029803F082FB6A
:1056D000FFE702980068416821F490414160029818
:1056E0000068816821F02A018160029800680168E1
:1056F00041F001010160029803F00CFC0390FFE708
:10570000039804B080BD000080B5C8B00146479042
:105710000020469045904490439042901DA89422CA
:1057200015911146FAF7FFFD4798006844F60041CD
:10573000C4F2000188424AD1FFE708201D900020F2
:105740002D901DA8FCF7FCFA002803D0FFE7FBF71B
:105750002BF9FFE7FFE741F25800C4F202000168AD
:1057600041F400210160006800F400201C901C98A6
:105770001490FFE7FFE741F24C00C4F20200016819
:1057800041F001010160006800F001001B901B98CE
:105790001390FFE70320429002214391002244929C
:1057A0004591082146910021C4F2022142AB12909A
:1057B000084619461192FBF79BFA40201090129967
:1057C000119AFCF7DFF91098FCF7D2F9EBE0479853
:1057D000006844F20041C4F2000188424AD1FFE768
:1057E00002201D9000202B901DA8FCF7A9FA00288C
:1057F00003D0FFE7FBF7D8F8FFE7FFE741F25800D7
:10580000C4F20200016841F400310160006800F454
:1058100000301A901A980F90FFE7FFE741F24C0012
:10582000C4F20200016841F001010160006800F06B
:105830000100199019980E90FFE70C204290022069
:105840004390002144914590072246920022C4F2E1
:10585000022242AB0D9010460C911946FBF748FA14
:105860003E200B900D990C9AFCF78CF90B98FCF7E5
:105870007FF997E04798006844F60001C4F2000100
:10588000884240F08E80FFE704201D9000202C907D
:105890001DA8FCF755FA002803D0FFE7FBF784F8B2
:1058A000FFE7FFE741F25800C4F20200016841F44B
:1058B00080210160006800F48020189018980A90F8
:1058C000FFE7FFE741F24C00C4F20200016841F03B
:1058D00004010160006800F0040017901798099017
:1058E000FFE7FFE741F24C00C4F20200016841F01B
:1058F00002010160006800F00200169016980890FE
:10590000FFE72020429002204390012144914590DE
:105910000722469240F60003C4F202230DF5847C70
:10592000079018460691614605920493CDF80CC085
:10593000FBF7DEF94FF4C0404290079843900021F6
:1059400044914590059A469240F20040C4F20220EC
:10595000039B02911946FBF7CBF94FF4806042900C
:1059600007984390029944914590059A469204986D
:105970000399FBF7BDF93F2001900799069AFCF7C0
:1059800001F90198FCF7F4F840F61050C2F200005B
:1059900041F27401C2F20001069A00F007F800908B
:1059A000FFE7FFE7FFE748B080BD000080B588B0A3
:1059B00013468C46864606900591ADF8122006984F
:1059C000D0F8880020280393CDF808C0CDF804E073
:1059D00027D1FFE70598002805D0FFE7BDF81200A2
:1059E000002803D1FFE7012007901DE0FFE706989C
:1059F000D0F88000012803D1FFE70220079013E0D0
:105A000006980121C0F88010FFE7FFE70698002103
:105A1000C16606980599BDF8122004F0FBF80790BE
:105A200002E002200790FFE7079808B080BD000061
:105A300080B584B0014603900398006844F60002E4
:105A4000C4F20002904202912AD1FFE741F27400B1
:105A5000C2F20000007840F63471C2F200010A88F8
:105A600040F63463C2F2000398540888013008807D
:105A70000888FF2807DBFFE740F63470C2F2000019
:105A800000210180FFE740F61050C2F2000041F211
:105A90007401C2F200010122FFF788FF0190FFE7C5
:105AA00004B080BDB0B58EB09C4696460C46054607
:105AB0000C900B91ADF82A2009930C98D0F8840033
:105AC0002028CDF814C0CDF810E00394029540F0E2
:105AD0009880FFE70B98002805D0FFE7BDF82A0063
